:1000000010C087C01EC01DC01CC01BC096C019C038
:1000100018C017C016C015C014C013C012C011C03C
:1000200010C011241FBECFE5D1E0DEBFCDBF20E060
:10003000A0E6B0E001C01D92AA36B207E1F720D1D8
:10004000BCC1DECFCF92DF92EF92FF92C098DF98D3
:10005000DB98DA988FE493EC0197F1F700C0000089
:10006000C09A8FE493EC0197F1F700C00000C098AC
:100070008FE493EC0197F1F700C00000C090660098
:10008000D0906700E0906800F090690023E333E3CC
:1000900043E850E4C701B60168D188232CF0C09A28
:1000A000DF9ADB9ADA9A23C02AE939E949E750E472
:1000B000C701B6015AD1882324F0C09ADF9ADB9A8F
:1000C00016C02DEC3CEC4CE650E4C701B6014DD116
:1000D00088231CF0C09ADF9A0AC020E030E040E696
:1000E00050E4C701B60141D188230CF0C09A9FE3C8
:1000F0002DE083E0915020408040E1F700C00000F7
:10010000C098DF98DB98DA98FF90EF90DF90CF905F
:1001100008951F920F920FB60F9211248F939F9301
:1001200081E090E090936300809362009F918F91B3
:100130000F900FBE0F901F9018951F920F920FB641
:100140000F9211242F933F934F935F936F937F935D
:100150008F939F93AF93BF93EF93FF938091600032
:1001600090916100019711F4C09A44C080916000A1
:1001700090916100029789F42DEC3CEC4CE650E440
:1001800060916600709167008091680090916900AD
:10019000ECD0882314F0DF9A2DC0809160009091FC
:1001A0006100039789F42AE939E949E750E460914D
:1001B0006600709167008091680090916900D5D0C9
:1001C000882314F0DB9A16C0809160009091610042
:1001D000049781F423E333E343E850E4609166003D
:1001E000709167008091680090916900BED088236B
:1001F0000CF0DA9A8091600090916100059744F0CC
:100200001092610010926000C098DF98DB98DA9835
:1002100080916000909161000196909361008093BD
:100220006000FF91EF91BF91AF919F918F917F916E
:100230006F915F914F913F912F910F900FBE0F9053
:100240001F9018958CE88ABB1BBA81E087BB94E0AD
:1002500098BB10B817B897EC96B913B881B980E37A
:1002600085BF80E58BBF12BA1FBC8CE08EBD80EDD0
:1002700093E09BBD8ABD82E08CB978942ED008951E
:10028000E1DFC2E064B175B1CB01880F991F880F1F
:10029000991F680F791F672F772780E090E028D09B
:1002A0006093660070936700809368009093690084
:1002B0008091620090916300892B29F0C3DE109237
:1002C0006300109262008091640090916500892B18
:1002D00011F0CCB9D7CF1CB8D5CFDE9ADC9AD49A1E
:1002E000D69A8FEF8FB98AE28DB980EF8EB90895D3
:1002F000E89409C097FB3EF49095809570956195C0
:100300007F4F8F4F9F4F9923A9F0F92F96E9BB2775
:100310009395F695879577956795B795F111F8CFF1
:10032000FAF4BB0F11F460FF1BC06F5F7F4F8F4F5C
:100330009F4F16C0882311F096E911C0772321F052
:100340009EE8872F762F05C0662371F096E8862FEA
:1003500070E060E02AF09A95660F771F881FDAF741
:10036000880F9695879597F9089503D008F48FEF35
:100370000895990F0008550FAA0BE0E8FEEF161636
:100380001706E807F907C0F012161306E407F50789
:1003900098F0621B730B840B950B39F40A2661F0FD
:1003A000232B242B252B21F408950A2609F4A140A0
:0E03B000A6958FEF811D811D0895F894FFCF53
:00000001FF
