:1000000014C019C018C017C021C015C014C013C037
:1000100012C011C010C00FC00EC00EC00CC00BC06B
:100020000AC009C008C007C006C011241FBECFED1A
:10003000CDBF36D037C0E4CF1F920F920FB60F92CC
:1000400011240F900FBE0F901F9018951F920F92C2
:100050000FB60F9211248F939F9398B381E0892755
:1000600088BB9F918F910F900FBE0F901F90189596
:100070001ABA8FEF8BBB87BB18BA11BA82BB82E06A
:1000800080BF84E083BF8FE186BF1FBC8CE08EBD44
:1000900082E19AE79BBD8ABD81E489BF7894089587
:0800A000E7DFFFCFF894FFCF6A
:00000001FF
