:1000000010C0FFC01EC01DC01CC01BC00EC119C047
:1000100018C017C016C015C014C013C012C011C03C
:1000200010C011241FBECFE5D1E0DEBFCDBF20E060
:10003000A0E6B0E001C01D92AE36B207E1F755D19F
:10004000B0C1DECF18161906FCF420E030E0C098ED
:10005000D898DB98DA98E3E2F4EF3197F1F700C033
:100060000000C09AD89ADB9ADA9AE3E2F4EF31976B
:10007000F1F700C00000C098D898DB98DA982F5F9D
:100080003F4F2817390719F70895CF92DF92EF9263
:10009000FF9286B3847086BB8111AEC020E030E051
:1000A0002F5F3F4F83EC99E00197F1F700C000000C
:1000B00086B3847086BB811104C0283C310581F76A
:1000C00053C0C9010B978534910508F049C081E000
:1000D00090E0B8DFC0906800D0906900E0906A00BE
:1000E000F0906B0020E030E046E952E4C701B60131
:1000F00030D188232CF0C09AD89ADB9ADA9A22C0A1
:1001000020E030E048E452E4C701B60122D1882360
:1001100024F0C09AD89ADB9A15C020E030E048EC71
:1001200051E4C701B60115D188231CF0C09AD89AB2
:1001300009C020E030E0A901C701B6010AD11816B4
:100140000CF4C09A9FE72AE186E09150204080405D
:10015000E1F700C00000C098D898DB98DA984CC04E
:10016000203531050CF448C082E090E06BDFC09090
:100170006400D0906500E0906600F090670020E099
:1001800030E040E450E4C701B601E3D088232CF00E
:10019000C09AD89ADB9ADA9A22C020E030E040E098
:1001A00050E4C701B601D5D0882324F0C09AD89A6C
:1001B000DB9A15C020E030E040E85FE3C701B601FC
:1001C000C8D088231CF0C09AD89A09C020E030E03B
:1001D000A901C701B601BDD018160CF4C09A9FE75B
:1001E0002AE186E0915020408040E1F700C0000005
:1001F000C098D898DB98DA98FF90EF90DF90CF9076
:1002000008951F920F920FB60F9211248F939F9310
:1002100081E090E090936100809360009F918F91C6
:100220000F900FBE0F901F9018951F920F920FB650
:100230000F9211248F939F9380916200909163009D
:10024000019711F4C09A17C08091620090916300E9
:10025000029711F4D89A0FC08091620090916300C8
:10026000039711F4DB9A07C08091620090916300BC
:10027000049709F4DA9A80916200909163000597DF
:1002800044F01092630010926200C098D898DB98F6
:10029000DA988091620090916300019690936300D8
:1002A000809362009F918F910F900FBE0F901F90CF
:1002B00018958CE88ABB1BBA81E087BB94E098BB99
:1002C00017B897EC96B913B881B915BE80E58BBF06
:1002D00012BA1FBC8CE08EBD89E09DE39BBD8ABD38
:1002E00082E08CB978942AD00895E3DF0F2EC12CD8
:1002F000D12CFAEFEF2EF3ECFF2EF02DC2E084B1FB
:1003000095B1C0926800D0926900E0926A00F092C4
:100310006B008091600090916100019729F4B5DE37
:10032000109261001092600080916C0090916D00BD
:10033000892B11F0CCB9E3CF1CB8E1CFC69AC49A8F
:10034000D49AD69A8FEF8FB98AE28DB980EF8EB9A1
:10035000089503D008F48FEF0895990F0008550F02
:10036000AA0BE0E8FEEF16161706E807F907C0F03B
:1003700012161306E407F50798F0621B730B840B43
:10038000950B39F40A2661F0232B242B252B21F41D
:1003900008950A2609F4A140A6958FEF811D811DBD
:0603A0000895F894FFCF60
:00000001FF
