S0190000506F77657242616E6B4669726D776172652E7372656345
S113000010C036C01EC01DC01CC01BC054C019C0C7
S113001018C017C016C015C014C013C012C011C038
S113002010C011241FBECFE5D1E0DEBFCDBF20E05C
S1130030A0E6B0E001C01D92A636B207E1F798D061
S1130040B4C0DECF86B3847086BB811110C028ECA7
S113005030E083EC99E00197F1F700C0000086B32B
S1130060847086BB811103C02150310991F7089532
S11300701F920F920FB60F9211242F933F934F9319
S11300805F936F937F938F939F93AF93BF93EF93FC
S1130090FF93D8DFFF91EF91BF91AF919F918F9123
S11300A07F916F915F914F913F912F910F900FBE70
S11300B00F901F9018951F920F920FB60F92112454
S11300C08F939F938091600090916100019711F448
S11300D0C09A17C08091600090916100029711F45A
S11300E0D89A0FC08091600090916100039711F439
S11300F0DB9A07C08091600090916100049709F435
S1130100DA9A8091600090916100059744F0109212
S1130110610010926000C098D898DB98DA988091BA
S1130120600090916100019690936100809360005B
S11301309F918F910F900FBE0F901F9018958CE890
S11301408ABB1BBA81E087BB94E098BB97EC96B955
S113015013B881B915BE80E58BBF12BA1FBC8CE001
S11301608EBD89E09DE39BBD8ABD789413D008952C
S1130170E6DF22E08091640090916500892B11F004
S11301802CB9F8CF1CB884B195B1909363008093D7
S11301906200F0CFC69AC49AD49AD69A8FEF8FB9D8
S11101A08AE28DB980EF8EB90895F894FFCFEE
S9030000FC
