S0190000506F77657242616E6B4669726D776172652E7372656345
S113000010C0C5C029C028C027C026C0D4C024C081
S113001023C022C021C020C01FC01EC01DC01CC0E0
S11300201BC011241FBECFE5D1E0DEBFCDBF10E061
S1130030A0E6B0E0E2E2F3E002C005900D92A4363F
S1130040B107D9F720E0A4E6B0E001C01D92AC36B8
S1130050B207E1F710D163C1D3CFCF92DF92EF9211
S1130060FF921CB8C098DF98DB98DA982FEC81E0F7
S113007091E0215080409040E1F700C00000C09A18
S11300802FEC81E091E0215080409040E1F700C0E6
S11300900000C0982FEC81E091E021508040904016
S11300A0E1F700C00000C0906800D0906900E090C3
S11300B06A00F0906B0020E030E04AEA52E4C701A5
S11300C0B60105D188232CF0C09ADF9ADB9ADA9A1C
S11300D023C020E030E040E752E4C701B601F7D086
S11300E0882324F0C09ADF9ADB9A16C020E030E01F
S11300F04CE052E4C701B601EAD088231CF0C09A50
S1130100DF9A0AC020E030E040E251E4C701B601C2
S1130110DED088230CF0C09A2FE78AE196E02150C4
S113012080409040E1F700C00000C098DF98DB9861
S1130130DA98109267001092660082E08CB9FF9002
S1130140EF90DF90CF90089518161906FCF420E084
S113015030E0C098DF98DB98DA98E3E2F4EF319767
S1130160F1F700C00000C09ADF9ADB9ADA9AE3E262
S1130170F4EF3197F1F700C00000C098DF98DB98E6
S1130180DA982F5F3F4F2817390719F708951F9200
S11301900F920FB60F9211248F939F9381E090E0FA
S11301A090936500809364009F918F910F900FBE90
S11301B00F901F9018951F920F920FB60F92112453
S11301C08F939F938091660090916700019711F43B
S11301D0C09A17C08091660090916700029711F44D
S11301E0DF9A0FC08091660090916700039711F425
S11301F0DB9A07C08091660090916700049709F428
S1130200DA9A8091660090916700059744F0109205
S1130210670010926600C098DF98DB98DA988091A6
S11302206600909167000196909367008093660042
S11302309F918F910F900FBE0F901F9018958CE88F
S11302408ABB1BBA81E087BB94E098BB17B897ECD4
S113025096B913B881B915BE80E58BBF12BA1FBC1D
S11302608CE08EBD81EA97E09BBD8ABD82E08CB9AB
S1130270789422D00895E3DFC2E0809160009091E9
S11302806100892B21F01CB881E090E05DDF809152
S1130290640090916500019729F4DFDE10926500F7
S11302A0109264008091620090916300892B11F098
S11302B0CCB9E3CF1CB8E1CFC69AC49AD49AD69AE3
S11302C08FEF8FB98AE28DB980EF8EB9089503D08C
S11302D008F48FEF0895990F0008550FAA0BE0E872
S11302E0FEEF16161706E807F907C0F012161306F4
S11302F0E407F50798F0621B730B840B950B39F434
S11303000A2661F0232B242B252B21F408950A2699
S113031009F4A140A6958FEF811D811D0895F894DD
S1050320FFCF09
S107032201000100D1
S9030000FC
