S0190000506F77657242616E6B4669726D776172652E7372656345
S113000014C021C020C01FC029C01DC01CC01BC0FB
S11300101AC019C018C017C016C016C014C013C027
S113002012C011C010C00FC00EC011241FBECFEDEE
S1130030CDBF20E0A0E6B0E001C01D92A036B2071B
S1130040E1F735D036C0DCCF1F920F920FB60F9276
S113005011240F900FBE0F901F9018951F920F92AE
S11300600FB60F9211248F939F9398B381E0892741
S113007088BB9F918F910F900FBE0F901F90189582
S11300801ABA8FEF8BBB87BB18BA11BA82BB92E046
S113009090BF95E093BF86BF1FBC8CE08EBD82E10C
S11300A09AE79BBD8ABD81E489BF78940895E8DF0F
S10900B0FFCFF894FFCF1E
S9030000FC
