S0190000506F77657242616E6B4669726D776172652E7372656345
S113000010C0A2C029C028C027C026C0B1C024C0C7
S113001023C022C021C020C01FC01EC01DC01CC0E0
S11300201BC011241FBECFE5D1E0DEBFCDBF10E061
S1130030A0E6B0E0E8ECF2E002C005900D92A6362E
S1130040B107D9F720E0A6E6B0E001C01D92AA36B8
S1130050B207E1F7EDD036C1D3CFCF92DF92EF9262
S1130060FF921CB8C098DF98DB98DA982FEC81E0F7
S113007091E0215080409040E1F700C00000C09A18
S11300802FEC81E091E0215080409040E1F700C0E6
S11300900000C0982FEC81E091E021508040904016
S11300A0E1F700C00000C0906000D0906100E090D3
S11300B06200F090630020E030E04AEA52E4C701B5
S11300C0B601D8D088232CF0C09ADF9ADB9ADA9A4A
S11300D023C020E030E040E752E4C701B601CAD0B3
S11300E0882324F0C09ADF9ADB9A16C020E030E01F
S11300F04CE052E4C701B601BDD088231CF0C09A7D
S1130100DF9A0AC020E030E040E251E4C701B601C2
S1130110B1D088230CF0C09A2FE78AE196E02150F1
S113012080409040E1F700C00000C098DF98DB9861
S1130130DA98109269001092680082E08CB9FF90FE
S1130140EF90DF90CF9008951F920F920FB60F9209
S113015011248F939F9381E090E0909367008093A4
S113016066009F918F910F900FBE0F901F9018956E
S11301701F920F920FB60F9211248F939F93809129
S1130180680090916900019711F4C09A17C080919A
S1130190680090916900029711F4DF9A0FC0809172
S11301A0680090916900039711F4DB9A07C080916D
S11301B0680090916900049709F4DA9A80916800C4
S11301C090916900059744F01092690010926800BC
S11301D0C098DF98DB98DA98809168009091690064
S11301E0019690936900809368009F918F910F907E
S11301F00FBE0F901F9018958CE88ABB1BBA81E044
S113020087BB94E098BB17B897EC96B913B881B93B
S113021015BE80E58BBF12BA1FBC8CE08EBD81EA8F
S113022097E09BBD8ABD82E08CB9789418D008957C
S1130230E3DFC2E08091660090916700019729F4A2
S11302400CDF109267001092660080916400909118
S11302506500892B11F0CCB9EDCF1CB8EBCFC69A51
S1130260C49AD49AD69A8FEF8FB98AE28DB980EF67
S11302708EB9089503D008F48FEF0895990F0008FC
S1130280550FAA0BE0E8FEEF16161706E807F90764
S1130290C0F012161306E407F50798F0621B730BFF
S11302A0840B950B39F40A2661F0232B242B252B80
S11302B021F408950A2609F4A140A6958FEF811D23
S10B02C0811D0895F894FFCF9D
S10902C80000A042010049
S9030000FC
