:1000000010C087C01EC01DC01CC01BC096C019C038
:1000100018C017C016C015C014C013C012C011C03C
:1000200010C011241FBECFE5D1E0DEBFCDBF20E060
:10003000A0E6B0E001C01D92AE36B207E1F7E0D015
:1000400041C2DECFCF92DF92EF92FF92C098DF984D
:10005000DB98DA988FE493EC0197F1F700C0000089
:10006000C09A8FE493EC0197F1F700C00000C098AC
:100070008FE493EC0197F1F700C00000C09060009E
:10008000D0906100E0906200F090630023E333E3DE
:1000900043E850E4C701B60131D188232CF0C09A5F
:1000A000DF9ADB9ADA9A23C02AE939E949E750E472
:1000B000C701B60123D1882324F0C09ADF9ADB9AC6
:1000C00016C02DEC3CEC4CE650E4C701B60116D14D
:1000D00088231CF0C09ADF9A0AC020E030E040E696
:1000E00050E4C701B6010AD188230CF0C09A9FE3FF
:1000F0002DE083E0915020408040E1F700C00000F7
:10010000C098DF98DB98DA98FF90EF90DF90CF905F
:1001100008951F920F920FB60F9211248F939F9301
:1001200081E090E090936B0080936A009F918F91A3
:100130000F900FBE0F901F9018951F920F920FB641
:100140000F9211248F939F93809168009091690082
:10015000019711F4C09A17C08091680090916900CE
:10016000029711F4DF9A0FC08091680090916900A6
:10017000039711F4DB9A07C08091680090916900A1
:10018000049709F4DA9A80916800909169000597C4
:1001900044F01092690010926800C098DF98DB98D4
:1001A000DA988091680090916900019690936900B7
:1001B000809368009F918F910F900FBE0F901F90BA
:1001C00018958CE88ABB1BBA81E087BB94E098BB8A
:1001D00010B817B890EC96B990E193B981B980E363
:1001E00085BF80E58BBF12BA1FBC8CE08EBD80ED51
:1001F00093E09BBD8ABD82E08CB9789437D0089596
:10020000E0DFC2E065B170E080E090E03AD060935A
:10021000640070936500809366009093670021E707
:100220003DE342EA50E46ED020E030E040E85BE39A
:1002300069D0609360007093610080936200909336
:10024000630080916A0090916B00892B29F0FADE9F
:1002500010926B0010926A0080916C0090916D007A
:10026000892B11F0CCB9CECF1CB8CCCFDE9ADC9A5A
:10027000D49AD69A8FEF8FB98AE28DB980EF8EB972
:100280000895E89409C097FB3EF490958095709589
:1002900061957F4F8F4F9F4F9923A9F0F92F96E9D2
:1002A000BB279395F695879577956795B795F11147
:1002B000F8CFFAF4BB0F11F460FF1BC06F5F7F4FE4
:1002C0008F4F9F4F16C0882311F096E911C07723F6
:1002D00021F09EE8872F762F05C0662371F096E8FF
:1002E000862F70E060E02AF09A95660F771F881FCE
:1002F000DAF7880F9695879597F908956ED008F4E8
:100300008FEF08950AD0A4C095D028F09AD018F0A5
:10031000952309F086C08BC0CFC0ABD0A8F399233A
:10032000D9F35523C9F3950F50E0551FAA27EE279F
:10033000FF27BB2700240894679520F4E20FF31FE2
:10034000B41F0A1E220F331F441FAA1F6695A9F768
:10035000779530F4F30FB41F0A1E121E08F463954C
:10036000330F441FAA1F221F769599F7879520F413
:10037000B40F0A1E121E631F440FAA1F221F331F31
:100380008695A9F7862F712D602D11249F57504017
:100390008AF0E1F088234AF0EE0FFF1FBB1F661FB3
:1003A000771F881F91505040A9F79E3F510570F06C
:1003B00038C082C05F3FECF3983EDCF386957795BA
:1003C0006795B795F795E7959F5FC1F7FE2B880F67
:1003D000911D9695879597F90895990F0008550FE7
:1003E000AA0BE0E8FEEF16161706E807F907C0F0BB
:1003F00012161306E407F50798F0621B730B840BC3
:10040000950B39F40A2661F0232B242B252B21F49C
:1004100008950A2609F4A140A6958FEF811D811D3C
:10042000089597F99F6780E870E060E008959FEF76
:1004300080EC089500240A9416161706180609067B
:10044000089500240A94121613061406050608954A
:10045000092E0394000C11F4882352F0BB0F40F4D2
:10046000BF2B11F460FF04C06F5F7F4F8F4F9F4F12
:10047000089557FD9058440F551F59F05F3F71F094
:100480004795880F97FB991F61F09F3F79F08795FB
:100490000895121613061406551FF2CF4695F1DF84
:1004A00008C0161617061806991FF1CF8695710514
:1004B000610508940895E894BB2766277727CB0148
:0804C00097F90895F894FFCFAD
:00000001FF
