:1000000010C088C129C028C0C9C126C0D5C124C01C
:1000100023C022C021C020C01FC01EC01DC01CC0E4
:100020001BC011241FBECFE5D1E0DEBFCDBF10E065
:10003000A0E6B0E0E8E6FAE002C005900D92A23634
:10004000B107D9F720E0A2E6B0E001C01D92A337C6
:10005000B207E1F785D206C5D3CF87EA91E60197CB
:10006000F1F700C00000C09ADF9ADB9ADA9A87EABB
:1000700091E60197F1F700C00000C098DF98DB9887
:10008000DA9887EA91E60197F1F700C00000C09A7C
:10009000DF9ADB9ADA9A87EA91E60197F1F700C0D6
:1000A0000000C098DF98DB98DA98EEE6F0E08091E7
:1000B0006000880F808389E0818384E6828363E027
:1000C000CF01C3C2CF93DF9383EC99E00197F1F79F
:1000D00000C00000CEE6D0E080916000880F8883E9
:1000E0008BE0898363E0CE012BD38981887190E016
:1000F00090936D0080936C0083EC99E00197F1F789
:1001000000C0000080916000880F888382E08983AE
:100110008DEB8A8363E0CE0198D283EC99E001975E
:10012000F1F700C0000080916000880F88838EE0A6
:10013000898363E0CE0104D3698170E080E090E0C0
:1001400072D32AE037ED43EA5CE321D42CEB34E7A9
:1001500043E150E4FED260936600709367008093A1
:1001600068009093690083EC99E00197F1F700C073
:10017000000080916000880F888382E1898363E0BA
:10018000CE01DED2698170E080E090E04CD32DECAE
:100190003CEC4CE45DE3FBD360936200709363003E
:1001A0008093640090936500DF91CF910895CF9282
:1001B000DF92EF92FF92C098DF98DB98DA988091F7
:1001C0006C0090916D00892BE1F58FE493EC019721
:1001D000F1F700C00000C09A8FE493EC0197F1F7AB
:1001E00000C00000C0988FE493EC0197F1F700C0C5
:1001F0000000C0906600D0906700E0906800F0902A
:10020000690020E030E040E850E4C701B601BBD30C
:1002100087FF3EC023E333E343E750E4C701B60161
:10022000B2D387FF43C026E636E646E650E4C70170
:10023000B601A9D387FF47C023E333E343E550E486
:1002400049C08FE493EC0197F1F700C00000C09A19
:10025000DF9A8FE493EC0197F1F700C00000C0989B
:10026000DF988FE493EC0197F1F700C00000C09095
:100270006200D0906300E0906400F090650020E0A0
:1002800030E040EC5FE3C701B6017DD387FD05C0D8
:10029000C09ADF9ADB9ADA9A22C020E030E040E888
:1002A0005FE3C701B6016FD387FD04C0C09ADF9A30
:1002B000DB9A15C020E030E040E05FE3C701B60103
:1002C00062D387FD03C0C09ADF9A09C02DEC3CECD5
:1002D0004CE45DE3C701B60156D387FFC09A9FE3A4
:1002E0002DE083E0915020408040E1F700C0000005
:1002F000C098DF98DB98DA989FE926E881E0915072
:1003000020408040E1F700C00000FF90EF90DF90B8
:10031000CF9008951F920F920FB60F9211242F9332
:100320003F934F935F936F937F938F939F93AF937D
:10033000BF93CF93DF93EF93FF9310926B001092D4
:100340006A00C0E0D0E086B3847086BB81110CC027
:10035000C53F91E0D90741F0219683EC99E00197E0
:10036000F1F700C00000EFCFADDEC53FD14011F482
:1003700074DE01C01CDFFF91EF91DF91CF91BF913F
:10038000AF919F918F917F916F915F914F913F912D
:100390002F910F900FBE0F901F9018951F920F92E4
:1003A0000FB60F9211248F9389E681BD8F910F9024
:1003B0000FBE0F901F9018951F920F920FB60F92BD
:1003C00011242F933F934F935F936F937F938F935A
:1003D0009F93AF93BF93EF93FF9380916A009091A7
:1003E0006B00019789F423E333E343E550E4609124
:1003F0006600709167008091680090916900C3D297
:1004000087FD02C0C09A43C080916A0090916B0042
:10041000029789F426E636E646E650E460916600E7
:10042000709167008091680090916900ACD287FD5F
:1004300002C0DF9A2CC080916A0090916B000397F4
:1004400089F423E333E343E750E46091660070915D
:100450006700809168009091690095D287FD02C085
:10046000DB9A15C080916A0090916B00049779F433
:1004700020E030E040E850E4609166007091670051
:1004800080916800909169007ED287FFDA9A80910E
:100490006A0090916B00059744F010926B001092E7
:1004A0006A00C098DF98DB98DA9880916A00909192
:1004B0006B00019690936B0080936A00FF91EF911F
:1004C000BF91AF919F918F917F916F915F914F916C
:1004D0003F912F910F900FBE0F901F9018958CE8B1
:1004E0008ABB1BBA81E087BB94E098BB80B980E3EC
:1004F00085BF80E58BBF12BA1FBC8CE08EBD81EA40
:1005000097E09BBD8ABD1CB889E681BD8FE493EC62
:100510000197F1F700C00000C09ADF9ADB9ADA9ADF
:100520008FE493EC0197F1F700C00000C098DF98CA
:10053000DB98DA988FE493EC0197F1F700C00000A4
:10054000C09ADF9ADB9ADA9A8FE493EC0197F1F77D
:1005500000C00000C098DF98DB98DA9878942CC02F
:10056000BEDF83ED90E30197F1F700C00000AADD44
:10057000C2E0A8DD23E333E343E550E46091660085
:1005800070916700809168009091690046D187FD65
:1005900064DD80916C0090916D00892B11F0CCB9D5
:1005A000E8CF1CB810926B0010926A00C098DF98D8
:1005B000DB98DA988895DDCFDE9ADC9AD49AD69AC1
:1005C0008FEF8FB98AE28DB980EF8EB908958EB919
:1005D0008BE200C000C000008DB9CC9BFECF00C0F4
:1005E00000C08DB9769BF5CF00C000C000008FB170
:1005F0009FEF9FB9D69A0895DC9ADC9BFECF00C08E
:1006000000C00000DE9800C000C0DC98DE9A779938
:1006100005C083E08093720080E0089581E0089532
:10062000DE98DC9ACC9BFECF00C000C0DE9A00C0F2
:1006300000C000009EB1892F807295FD04C094E037
:1006400090937200089581E00895AF92BF92CF9287
:10065000DF92EF92FF920F931F93CF93DF937C0172
:10066000062F90917200916090937200F701808143
:1006700080FD03C0926090937200BEDF982F8823A4
:1006800009F452C0102FE701BB24BA94AA24A39402
:100690008091720083709E012F5F3F4F6901882314
:1006A00061F1DC9888818FB980EF91DFD6988EEF69
:1006B0008EDF2091720080FF0AC0922F917020FF80
:1006C00004C081E0809372002EC082E00FC0822FB0
:1006D0008570843071F4F701808181608083A092FD
:1006E00072008ADF982F811115C08AE08093720012
:1006F0001BC02E7F209372000BC0D69880EF67DF5F
:100700008883113011F4BFB801C01FB88EEF5FDFCE
:10071000E60102C0102FE701115009F0B9CF80DFC8
:1007200091E0811101C090E0892FDF91CF911F915D
:100730000F91FF90EF90DF90CF90BF90AF90089512
:10074000FC0120812E7F208324E0209372007DCF46
:100750005058BB27AA270ED0DCC0CDD030F0D2D065
:1007600020F031F49F3F11F41EF4C2C00EF4E09566
:10077000E7FBB8C0E92FDED080F3BA176207730732
:100780008407950718F071F49EF5F6C00EF4E09515
:100790000B2EBA2FA02D0B01B90190010C01CA013B
:1007A000A0011124FF27591B99F0593F50F4503EE6
:1007B00068F11A16F040A22F232F342F4427585FD8
:1007C000F3CF469537952795A795F0405395C9F7F0
:1007D0007EF41F16BA0B620B730B840BBAF09150A8
:1007E000A1F0FF0FBB1F661F771F881FC2F70EC047
:1007F000BA0F621F731F841F48F48795779567951A
:10080000B795F7959E3F08F0B3CF9395880F08F002
:100810009927EE0F97958795089540D008F481E0C9
:100820000895E89409C097FB3EF4909580957095E3
:1008300061957F4F8F4F9F4F9923A9F0F92F96E92C
:10084000BB279395F695879577956795B795F111A1
:10085000F8CFFAF4BB0F11F460FF1BC06F5F7F4F3E
:100860008F4F9F4F16C0882311F096E911C0772350
:1008700021F09EE8872F762F05C0662371F096E859
:10088000862F70E060E02AF09A95660F771F881F28
:10089000DAF7880F9695879597F90895990F0008CC
:1008A000550FAA0BE0E8FEEF16161706E807F90742
:1008B000C0F012161306E407F50798F0621B730BDD
:1008C000840B950B39F40A2661F0232B242B252B5E
:1008D00021F408950A2609F4A140A6958FEF811D01
:1008E000811D089597F99F6780E870E060E00895A2
:1008F0009FEF80EC089500240A9416161706180638
:100900000906089500240A94121613061406050613
:100910000895092E0394000C11F4882352F0BB0FA4
:1009200040F4BF2B11F460FF04C06F5F7F4F8F4F07
:100930009F4F089557FD9058440F551F59F05F3F42
:1009400071F04795880F97FB991F61F09F3F79F0F1
:1009500087950895121613061406551FF2CF469573
:10096000F1DF08C0161617061806991FF1CF8695F5
:100970007105610508940895E894BB2766277727D9
:10098000CB0197F908958ADF08F48FEF08950AD014
:10099000C0CFB1DF28F0B6DF18F0952309F0A2CF61
:1009A000A7CFEBCFC7DFA8F39923D9F35523C9F31A
:1009B000950F50E0551FAA27EE27FF27BB270024DD
:1009C0000894679520F4E20FF31FB41F0A1E220F4C
:1009D000331F441FAA1F6695A9F7779530F4F30FCC
:1009E000B41F0A1E121E08F46395330F441FAA1F7A
:1009F000221F769599F7879520F4B40F0A1E121ED0
:100A0000631F440FAA1F221F331F8695A9F7862F45
:100A1000712D602D11249F5750408AF0E1F08823FA
:100A20004AF0EE0FFF1FBB1F661F771F881F9150F4
:100A30005040A9F79E3F510570F054CF9ECF5F3FC5
:100A4000ECF3983EDCF3869577956795B795F79527
:100A5000E7959F5FC1F7FE2B880F911D96958795AF
:080A600097F90895F894FFCF07
:020A68006A0022
:00000001FF
